:060000000A128A110E280D
:10000800FE00030EF8000408F9000A08FA000A12B4
:100018008A113E2A0A128A111128FB01FC01FD01EE
:1000280083120313AC01AD01AE0183010A128A11D8
:10003800072AF2007208F0007008F30073283F30B6
:10004800F0007008F400AD280630F0007008F400E5
:10005800AD285B30F0007008F400AD284F30F00098
:100068007008F400AD286630F0007008F400AD2880
:100078006D30F0007008F400AD287D30F000700895
:10008800F400AD280730F0007008F400AD287F3088
:10009800F0007008F400AD286F30F0007008F4002C
:1000A800AD287730F0007008F400AD287C30F000FF
:1000B8007008F400AD283930F0007008F400AD285D
:1000C8005E30F0007008F400AD287930F000700858
:1000D800F400AD287130F0007008F400AD28730802
:1000E800F000F1017108003A03197B28AD28700867
:1000F800003A03192328013A03192828033A031957
:100108002D28013A03193228073A03193728013AEA
:1001180003193C28033A03194128013A03194628D0
:100128000F3A03194B28013A03195028033A0319C7
:100138005528013A03195A28073A03195F28013A42
:1001480003196428033A03196928013A03196E2828
:10015800AD287408080083120313A601A11FB5284F
:10016800B628BD28A009A109A00A0319A10AA60159
:10017800A60AA31FC028C128CA28A209A309A20A3F
:100188000319A30A0130A4002408A606A701A801A0
:10019800200821040319D128D2280929A501A50A74
:1001A800E02801300310A00DA10DFF3E031DD62845
:1001B8000130A4002408A507A11FE328E428D528B6
:1001C80001300310A70DA80DFF3E031DE5282108E7
:1001D8002302031DF12820082202031CF428F52815
:1001E800FC282008A2022108031CA303A302271449
:1001F80001300310A10CA00CFF3E031DFD280130A7
:10020800A502031D08290929E428260803190D2930
:100218000E291329A709A809A70A0319A80A280853
:10022800A1002708A0000800F83083120313A000DB
:100238002008AF00033083160317880089010330B4
:100248008316031385008312031385018316031392
:100258008701890183120313870183160313880119
:100268008312031388018901831603130F088F393A
:1002780060388F000F14831203131F083F3940386A
:100288009F00831603131F129F12C3308312031398
:100298009F05831603139F13831203131F140C3037
:1002A80083120313A000A00B572900008312031325
:1002B8000C13831603130C170B178B170B118112D2
:1002C8008111011581140114831203132F08810071
:1002D80008008312031389010130F5007508AE0781
:1002E800A9298801013089007B080A128A111D207A
:1002F8000A128A11F5007508FB007B0883120313A4
:100308008800BB298801023089007C080A128A11FA
:100318001D200A128A11F5007508FC007C0883125A
:1003280003138800BB298801043089007D080A125C
:100338008A111D200A128A11F5007508FD007D0832
:10034800831203138800AE01BB292E08F500F601BD
:10035800F51BF6037608003A0319B329972975089F
:10036800013A03197529033A0319862997290800C0
:10037800643083120313A0000030A1002D08A200EE
:10038800A301A21BA3030A128A11AF200A128A1121
:10039800831203132008A9002908FB009C30A90038
:1003A8002908A0007B080A128A1175220A128A11EC
:1003B800831203132D07AA002A08AD000A30A000F3
:1003C8000030A1002D08A200A301A21BA3030A125A
:1003D8008A11AF200A128A11831203132008A90078
:1003E8002908FC00F630A9002908A0007C080A1298
:1003F8008A1175220A128A11831203132D07AA0083
:100408002A08FD0008000A128A1118210A128A1106
:10041800831203139F18112A122A352A1F0CAB00C6
:100428002B0C0F39003A031D1A2A1B2A202A1F08F1
:10043800C33904389F002B2A1F0CAB002B0C0F3933
:10044800013A031D282A292A2B2AC3309F050C307C
:1004580083120313AB00AB0B2F2A00008312031384
:100468009F140A128A11BC210A128A110C2A0A1234
:100478008A110E28831203130C1F432A442A6C2A5C
:100488001F0CF700770C0F39003A031D4C2A4D2A30
:10049800502A1E0887005D2A1F0CF700770C0F39B9
:1004A800013A031D582A592A5D2A1E08F7007708C1
:1004B800AD000B1D602A612A6B2A0A128A116D2170
:1004C8000A128A11831203132F0881000B110C13CF
:1004D8007A088A0079088400780E8300FE0E7E0E62
:1004E800090083120313A300A201231C7C2A7D2A7E
:1004F800812A2008A1002108A2070310A00D0310DB
:10050800A30C2308031D892A8A2A792A22080800AD
:08400000FF3FFF3FFF3FFF3FC0
:04400E00D420FF3F7C
:00000001FF
